:100000000C9433050C9472000C947E00189518958E
:100010001895189518951895189518951895189578
:100020001895189518951895189518951895189568
:1000300018951895189518950C94AA001895189568
:100040001895189518951895189518951895189548
:100050001895189518951895189518951895189538
:100060001895189518951895189518951895189528
:10007000189518950C94CB00189518951895189507
:10008000189518951895189518951895F89400E0F6
:1000900000936A0000E00ABF00E009BF7894089569
:1000A000F89400916A00036000936A0000E00ABFC0
:1000B00009B7016009BF78940895F89400916A0027
:1000C000037F00936A0000E00ABF09B7026009BF1E
:1000D000789408950091A0020023E1F300E00093DA
:1000E000A00208951A930A931BB700E00BBF0FEF0D
:1000F0000093A0021BBF099119911895BA93AA9376
:10010000FA93EA935A934A933A932A931A930A9347
:100110004FB75BB700E00BBFA4E9B1E0ED91FC91F4
:1001200011970081E6E9F1E0A081B1811C91202FB7
:1001300030E0F901E156FE4F10835BBF4FBF0991DC
:1001400019912991399149915991E991F991A9917F
:10015000B9911895FA93EA933A932A931A930A93CA
:100160002FB73BB700E00BBFE8E9F1E00081118158
:100170001DBD0CBDE3EAF2E0008111810F5F1F4F4E
:10018000008311833BBF2FBF0991199129913991A8
:10019000E991F9911895FA93EA933A932A931A936D
:1001A0000A932FB73BB700E00BBFE8E9F1E000810D
:1001B00011811093890000938800E5EAF2E0008144
:1001C00011810F5F1F4F008311833BBF2FBF099128
:1001D000199129913991E991F9911895BA93AA93B6
:1001E00000939F02AAE8B1E0ED91FC911197108372
:1001F0000AE010E00E94A102EFE9F2E00081006154
:10020000008300919F02A8E8B1E0ED91FC91119765
:100210000083EFE9F2E000810F7E00830EE610E03C
:100220000E94A10200919F02A8E8B1E0ED91FC912B
:1002300011970083EFE9F2E00081006100830EE690
:1002400010E00E94A10200919F02A8E8B1E0ED91A8
:10025000FC91119700830EE610E00E94A102A99183
:10026000B99108951B2F2A2F00E0ACE8B1E0ED9181
:10027000FC911197008300E0AEE8B1E0ED91FC91B4
:1002800011970083A22FB12F08951B2F2A2F0FEF54
:10029000ACE8B1E0ED91FC91119700830FEFAEE86F
:1002A000B1E0ED91FC9111970083A22FB12F089539
:1002B0000E945A0580E1089FA02D90E00CC0B0E09C
:1002C000092F10E00A0F1B1FF801E156FE4F1081A5
:1002D000092F84DF9395981790F3E4E00C945F0561
:1002E0000091A002002341F000E00093A002BADFD9
:1002F0000E94E504959A0895E3EAF2E020813181B5
:1003000000914D0210E02017310720F09598BDDFD5
:100310000E94F7040895949A08959498089500917E
:10032000A002002339F000E00093A002F4DF0E9455
:10033000E5040895E3EAF2E02081318100914E0264
:1003400010E02017310718F0E8DF0E94F704089545
:100350000E94F7049ADFE1DF00E00093A10200E0D1
:100360000093A2020895005039F00A9571F00A95A1
:10037000A9F00A95E1F023C00091450200939D0188
:100380000091460200939C011AC00091470200931D
:100390009D010091480200939C0111C00091490207
:1003A00000939D0100914A0200939C0108C00091B6
:1003B0004B0200939D0100914C0200939C012091FF
:1003C0009C0110919D010091430207D0089520E007
:1003D00010E00091430201D0089500939E01109314
:1003E0009B0120939A011F9A1C9800E012C01E9A4C
:1003F000EEE9F1E0108111FF1D9A11FD1D981E9884
:100400001E9A10919E0110FF1D9A10FD1D981E98B6
:100410000395023060F300E014C01E9AEAE9F1E0AF
:10042000118113FF1D9A13FD1D98EAE9F1E0208167
:100430003181220F331FEAE9F1E0208331831E98D6
:1004400003950C3050F31F981C9A1C9808958A93BA
:100450002A97BE01E8E4FBE030E08B014AE050E07F
:100460000E94490580E01A9880E016C0FE01082F1E
:1004700010E0000F111FE00FF11F00811181ECE966
:10048000F1E0008311830E946A0020919C01109189
:100490009D0100E0A2DF8395853040F3088119813A
:1004A000ECE9F1E0008311830E946A0020919C0135
:1004B00010919D0100E091DF80E016C0FE01082F41
:1004C00010E0000F111FE00FF11F00811181ECE916
:1004D000F1E0008311830E946A0020919C01109139
:1004E0009D0101E07ADF8395853040F30881198111
:1004F000ECE9F1E0008311830E946A0020919C01E5
:1005000010919D0101E069DF2A968991089501E02B
:1005100007BB00EC08BB00E301BB00E002BB0CEF33
:1005200002B900E003B900E00093620000E000932C
:1005300061001F981C9A1E981B9A1A989598949877
:10054000089501C0000001501040E1F70895F894AB
:10055000DEDF05B7006805BF00E400936D0000E032
:1005600000936C0078940E9446000E9450000E9404
:100570005D000E94D204C09A08950E945A0580E04E
:1005800090E0A0E0B0E080E090E006C000E0FC0178
:10059000E156FE4F00830196803001E09007B0F3F2
:1005A00005E000934D0205E000934E02959A0E94EB
:1005B000450180E090E005C010E0082F0E94EE00A9
:1005C0000196803100E09007B8F39598A0E0B0E084
:1005D0002EC01FEF082F0E94EE000E94E5040E942B
:1005E0003201E3EAF2E02081318100914D0210E016
:1005F00020173107B0F30E94F7040E94E5040E941F
:100600004501E3EAF2E02081318100914D0210E0E2
:1006100020173107B0F30E94F70410E0082F0E9462
:10062000EE000196803100E0900798F21196AA3012
:1006300000E0B00718F480E090E0F4CF00E0009311
:10064000A002A0E0B0E021C00091A0020023E1F3ED
:1006500000E00093A0020E94E5040E948B01E3EAFF
:10066000F2E02081318100914E0210E02017310725
:10067000B0F30E948D010E94F7040091A0020023B4
:10068000E1F300E00093A0021196A43600E0B00769
:10069000D8F2A0E0B0E02EC01FEF082F0E94EE00BD
:1006A0000091A0020023E1F300E00093A0020E9469
:1006B000E5040E943201E3EAF2E0208131810091F9
:1006C0004D0210E020173107B0F30E9445010E944F
:1006D000F7040091A0020023E1F300E00093A002E0
:1006E00010E0082F0E94EE000196803100E0900794
:1006F00098F21196A53000E0B00718F480E090E081
:10070000F4CF0E942702E4E00C945F0520DF35DF80
:1007100008C00091A7020F700E94580101E00093E9
:10072000A10200913F020093A7020023A9F000E07C
:1007300000933F020E94A8010091A702005F51F0C0
:10074000005278F30A5028F3005059F701E0009363
:10075000A202E7CF0FD0E5CF0091A102002319F04C
:100760000E947001DECF0091A2020023D1F20E940C
:100770008F01D7CFBA93AA9300E00093AB020E94F7
:10078000070512C000E0102F10FD1A9A10FF1A98EA
:1007900000E00093A80200E00093A90200E00093AB
:1007A000AA0201E00093AB02E5EAF2E02081318188
:1007B000293E03E0300718F007E00093AB020091F8
:1007C000AB02005089F00A9519F10A9581F10A955A
:1007D00009F457C00A9509F468C00A9509F48AC05B
:1007E0000A9509F49BC0C5C0A2E9B1E0ED91FC9166
:1007F000119700810B7FA0E9B1E0ED91FC91119779
:10080000008300914402002309F4BCCF01E0BBCF78
:100810000091A802102F13951093A8020E9458016E
:1008200002E00093AB0200E00093A002BDCF009174
:10083000A002002349F000E00093A0020E943201D0
:100840000E94E504959AB0CFE3EAF2E0208131817D
:1008500000914D0210E02017310708F4A5CF0E9447
:1008600045010E94F7040091A8021091400201176F
:1008700020F401E00093AB0297CF03E00093AB02BA
:1008800093CF00914102013060F0E9EAF2E000818B
:100890000395008304E00093AB0200E00093A00204
:1008A00083CF05E00093AB027FCF0091A00200232D
:1008B00031F000E00093A0020E94E50475CFE3EA66
:1008C000F2E02081318100914D0210E020173107C4
:1008D00008F46ACF0E94F7040091A9021091410226
:1008E000011720F403E00093AB025ECF05E0009314
:1008F000AB025ACF00914202013060F00091AA028F
:10090000102F13951093AA020E94B30106E00093E2
:10091000AB024ACF07E00093AB0246CF0091A002A2
:10092000002341F000E00093A0020E948B010E948E
:10093000E5043ACFE3EAF2E02081318100914E02F2
:1009400010E02017310708F42FCF0E948D010E947C
:10095000F7040091AA0210914202011720F405E069
:100960000093AB0221CF0E94E70107E00093AB02A6
:100970001BCFA2E9B1E0ED91FC91119700810460D9
:10098000A0E9B1E0ED91FC911197008395980E9448
:1009900045010E948D010E941E050E94F704A99145
:1009A000B991089500E00FBD00E00EBD00E0009396
:1009B0007A0000E000938B0000E000938A0000E0E2
:1009C00000938C0014D03AD0089500E010E0E3EAE0
:1009D000F2E00083118307B7046007BFE8E9F1E0A4
:1009E000008111811DBD0CBD02E00EBD089500E027
:1009F0000EBD00E010E01DBD0CBD07B70B7F07BFAB
:100A000000E010E0E3EAF2E000831183089500E0E3
:100A100010E0E5EAF2E00083118300917D000460BC
:100A200000937D00E8E9F1E00081118110938900D5
:100A30000093880002E000938A00089500E000938C
:100A40008A0000E010E01093890000938800009174
:100A50007D000B7F00937D0000E010E0E5EAF2E00E
:100A600000831183089507E80DBF01E00EBFC0E6C3
:100A7000D1E00E946A05002311F00E947C0500E08D
:100A80000BBF0E9486030E9447050C949F050C949F
:100A90009F05AF93BF93B12FA02F3BBFD895EF5FBA
:100AA000FF4F3F4F0D9241505040B9F74BBFBF91A0
:100AB000AF910895BA93AA939A938A930895BB81AC
:100AC000AA8199818881F0E00FB6F894CE0FDF1FDC
:100AD0000FBE089501E0089520E002D0E9F70895DF
:100AE0002D9301501040202F212B08953BBF2791BB
:100AF0003BB7F6DFD9F7089502E51BE02801F201C4
:100B000030E03BBF07911691F2013296A791B69162
:100B1000F2013496479157916691242F252B262B6D
:100B200021F0FA01362FE2DF01C0D6DF07E0400EE8
:100B300000E0501EA20140365B4008F308950C947B
:100B4000A20500008895FECF0000300360069009E2
:100B5000FF0F12019A0100000012008801600B00D3
:100B6000008004800C800880009008A000F004F051
:020B700017FC70
:00000001FF
