:100000000C9474050C947E000C948A001895189535
:100010001895189518951895189518951895189578
:100020001895189518951895189518951895189568
:1000300018951895189518950C94B600189518955C
:100040001895189518951895189518951895189548
:100050001895189518951895189518951895189538
:100060001895189518951895189518951895189528
:10007000189518950C94D7001895189518951895FB
:100080001895189518951895189518950000FA0464
:100090000900F7030A041904430457047C0490047C
:1000A000BB04CF04F89400E000936A0000E00ABFAC
:1000B00000E009BF78940895F89400916A00036005
:1000C00000936A0000E00ABF09B7016009BF789495
:1000D0000895F89400916A00037F00936A0000E09D
:1000E0000ABF09B7026009BF789408950091A00281
:1000F0000023E1F300E00093A00208951A930A930D
:100100001BB700E00BBF0FEF0093A0021BBF0991CC
:1001100019911895BA93AA93FA93EA935A934A932A
:100120003A932A931A930A934FB75BB700E00BBF39
:10013000A4E9B1E0ED91FC9111970081E6E9F1E0CD
:10014000A081B1811C91202F30E0F901E156FE4FD2
:1001500010835BBF4FBF0991199129913991499142
:100160005991E991F991A991B9911895FA93EA9366
:100170003A932A931A930A932FB73BB700E00BBF29
:10018000E8E9F1E0008111811DBD0CBDE3EAF2E078
:10019000008111810F5F1F4F008311833BBF2FBF71
:1001A0000991199129913991E991F9911895FA9349
:1001B000EA933A932A931A930A932FB73BB700E036
:1001C0000BBFE8E9F1E000811181109389000093F1
:1001D0008800E5EAF2E0008111810F5F1F4F008384
:1001E00011833BBF2FBF0991199129913991E99151
:1001F000F9911895BA93AA9300939F02AAE8B1E0E7
:10020000ED91FC91119710830AE010E00E94AD027D
:10021000EFE9F2E000810061008300919F02A8E80D
:10022000B1E0ED91FC9111970083EFE9F2E00081DC
:100230000F7E00830EE610E00E94AD0200919F0247
:10024000A8E8B1E0ED91FC9111970083EFE9F2E0AD
:100250000081006100830EE610E00E94AD02009173
:100260009F02A8E8B1E0ED91FC91119700830EE6A2
:1002700010E00E94AD02A991B99108951B2F2A2F79
:1002800000E0ACE8B1E0ED91FC911197008300E053
:10029000AEE8B1E0ED91FC9111970083A22FB12F50
:1002A00008951B2F2A2F0FEFACE8B1E0ED91FC91E0
:1002B000119700830FEFAEE8B1E0ED91FC9111973B
:1002C0000083A22FB12F08950E94FE0580E1089FB0
:1002D000A02D90E00CC0B0E0092F10E00A0F1B1F0A
:1002E000F801E156FE4F1081092F84DF939598178E
:1002F00090F3E4E00C9403060091A002002341F087
:1003000000E00093A002BADF0E942605959A0895A6
:10031000E3EAF2E02081318100914E0210E02017E3
:10032000310720F09598BDDF0E9438050895949A12
:100330000895949808950091A002002339F000E0F8
:100340000093A002F4DF0E9426050895E3EAF2E09C
:100350002081318100914F0210E02017310718F001
:10036000E8DF0E94380508950E9438059ADFE1DF32
:1003700000E00093A10200E00093A2020895005063
:1003800039F00A9571F00A95A9F00A95E1F023C0B9
:100390000091460200939D010091470200939C0149
:1003A0001AC00091480200939D01009149020093F8
:1003B0009C0111C000914A0200939D0100914B02E3
:1003C00000939C0108C000914C0200939D01009194
:1003D0004D0200939C0120919C0110919D01009180
:1003E000440207D0089520E010E00091440201D0BB
:1003F000089500939E0110939B0120939A011F9AE8
:100400001C9800E012C01E9AEEE9F1E0108111FF85
:100410001D9A11FD1D981E981E9A10919E0110FFA5
:100420001D9A10FD1D981E980395023060F300E0A0
:1004300014C01E9AEAE9F1E0118113FF1D9A13FD21
:100440001D98EAE9F1E020813181220F331FEAE9AA
:10045000F1E0208331831E9803950C3050F31F98F0
:100460001C9A1C9808958A932A97BE01E0E9FCE043
:1004700030E08B014AE050E00E94ED0580E01A98E0
:1004800080E016C0FE01082F10E0000F111FE00FE2
:10049000F11F00811181ECE9F1E0008311830E94DA
:1004A000760020919C0110919D0100E0A2DF8395D0
:1004B000853040F308811981ECE9F1E00083118374
:1004C0000E94760020919C0110919D0100E091DF37
:1004D00080E016C0FE01082F10E0000F111FE00F92
:1004E000F11F00811181ECE9F1E0008311830E948A
:1004F000760020919C0110919D0101E07ADF8395A7
:10050000853040F308811981ECE9F1E00083118323
:100510000E94760020919C0110919D0101E069DF0D
:100520002A968991089501E007BB00EC08BB00E31F
:1005300001BB00E002BB0CEF02B900E003B900E030
:100540000093620000E0009361001F981C9A1E98BF
:100550001B9A1A9895989498089501C0000001502C
:100560001040E1F70895F894DEDF05B7006805BF95
:1005700000E400936D0000E000936C0078940E940A
:1005800052000E945C000E9469000E941305C09AFC
:1005900008950E94FE0580E090E0A0E0B0E080E0D9
:1005A00090E006C000E0FC01E156FE4F008301969A
:1005B000803001E09007B0F305E000934E0205E0C3
:1005C00000934F0205E000935002959A0E9451015A
:1005D00080E090E005C010E0082F0E94FA0001962C
:1005E000803100E09007B8F39598A0E0B0E02EC00D
:1005F0001FEF082F0E94FA000E9426050E943E016C
:10060000E3EAF2E02081318100914E0210E02017F0
:100610003107B0F30E9438050E9426050E9451015F
:10062000E3EAF2E02081318100914E0210E02017D0
:100630003107B0F30E94380510E0082F0E94FA003D
:100640000196803100E0900798F21196AA3000E000
:10065000B00718F480E090E0F4CF00E00093A0022F
:10066000A0E0B0E021C00091A0020023E1F300E08F
:100670000093A0020E9426050E949701E3EAF2E09F
:100680002081318100914F0210E020173107B0F333
:100690000E9499010E9438050091A0020023E1F315
:1006A00000E00093A0021196A43600E0B007D8F253
:1006B000A0E0B0E02EC01FEF082F0E94FA000091CA
:1006C000A0020023E1F300E00093A0020E942605AF
:1006D0000E943E01E3EAF2E02081318100914E0266
:1006E00010E020173107B0F30E9451010E94380535
:1006F0000091A0020023E1F300E00093A00210E0CB
:10070000082F0E94FA000196803100E0900798F2CD
:100710001196A53000E0B00718F480E090E0F4CF27
:100720000E943302E4E00C9403061DDF32DF08C0B0
:100730000091A7020F700E94640101E00093A102E2
:1007400000913F020093A7020023A9F000E000936C
:100750003F020E94B4010091A702005F51F00052D5
:1007600078F30A5028F3005059F701E00093A202F1
:10077000E7CF0FD0E5CF0091A102002319F00E942E
:100780007C01DECF0091A2020023D1F20E949B01E6
:10079000D7CFBA93AA9300E00093AC020E94480519
:1007A00015C000E0102F10FD1A9A10FF1A9800E0F3
:1007B0000093A80200E00093A90200E00093AA02BF
:1007C00000E00093AB0201E00093AC02E5EAF2E046
:1007D00020813181293E03E0300718F009E00093C1
:1007E000AC020091AC02ECE8F0E00C949A05A2E9AE
:1007F000B1E0ED91FC91119700810B7FA0E9B1E090
:10080000ED91FC911197008300914502002349F27C
:1008100001E0C8CF0091A802102F13951093A802F1
:100820000E94640102E00093AC0200E00093A00289
:10083000CDCF0091A002002349F000E00093A00278
:100840000E943E010E942605959AC0CFE3EAF2E09D
:100850002081318100914E0210E02017310708F409
:10086000B5CF0E9451010E9438050091A802109155
:100870004002011720F401E00093AC02A7CF03E08F
:100880000093AC02A3CF00914102013060F0E9EA8D
:10089000F2E000810395008304E00093AC0200E0E5
:1008A0000093A00293CF05E00093AC028FCF00919C
:1008B000A002002331F000E00093A0020E94260570
:1008C00085CFE3EAF2E02081318100914E0210E011
:1008D0002017310708F47ACF0E9438050091A90249
:1008E00010914102011720F403E00093AC026ECF97
:1008F00005E00093AC026ACF00914202013060F043
:100900000091AA02102F13951093AA020E94BF0112
:1009100006E00093AC025ACF07E00093AC0256CF3A
:100920000091A002002341F000E00093A0020E9489
:1009300097010E9426054ACFE3EAF2E02081318147
:1009400000914F0210E02017310708F43FCF0E94BA
:1009500099010E9438050091AA02109142020117E4
:1009600020F405E00093AC0231CF0E94F30107E0D0
:100970000093AC022BCF00914302013060F0009154
:10098000AB02102F13951093AB020E94BF0108E039
:100990000093AC021BCF09E00093AC0217CF00918B
:1009A000A002002341F000E00093A0020E94970102
:1009B0000E9426050BCFE3EAF2E02081318100910D
:1009C000500210E02017310708F400CF0E9499016F
:1009D0000E9438050091AB0210914302011720F4E8
:1009E00007E00093AC02F2CE0E94F30109E000930D
:1009F000AC02ECCEA2E9B1E0ED91FC91119700813F
:100A00000460A0E9B1E0ED91FC9111970083959805
:100A10000E9451010E9499010E945F050E943805C1
:100A2000A991B991089500E00FBD00E00EBD00E06E
:100A300000937A0000E000938B0000E000938A00AE
:100A400000E000938C0014D03AD0089500E010E04C
:100A5000E3EAF2E00083118307B7046007BFE8E927
:100A6000F1E0008111811DBD0CBD02E00EBD0895B5
:100A700000E00EBD00E010E01DBD0CBD07B70B7F10
:100A800007BF00E010E0E3EAF2E00083118308957D
:100A900000E010E0E5EAF2E00083118300917D00C0
:100AA000046000937D00E8E9F1E00081118110937A
:100AB00089000093880002E000938A00089500E016
:100AC00000938A0000E010E01093890000938800F2
:100AD00000917D000B7F00937D0000E010E0E5EACF
:100AE000F2E000831183089507E80DBF01E00EBF17
:100AF000C0E6D1E00E940E06002311F00E942006FD
:100B000000E00BBF0E9495030E9488050C944306E9
:100B10000C9443065FD0702D5DD0602D5BD0502DBE
:100B200059D0402D57D0102C01FA54D0202C52D03F
:100B3000302C0895F5DF041B10E003C0EFDF041B29
:100B4000150B20E030E005C0E5DF041B150B260B7C
:100B5000370BE0F010FC1DC03DD0402D3BD0E00F26
:100B6000F11F0417100540E02407340778F446F419
:100B7000C895002D0024E22DF32DE01BF009099407
:100B8000E00FF11F27D0202C25D0302CE22DF32DA3
:100B9000099411F4BEF7ECCF31960EF0319650E087
:100BA00060E070E017D0402D4B3F68F079F34F3F85
:100BB00041F04E3F21F00ED0702D0CD0602D0AD0A8
:100BC000502D08D0402D041B150B260B370B11F3AD
:100BD000E8F2E2CFC89531960895AF93BF93B12F55
:100BE000A02F3BBFD895EF5FFF4F3F4F0D92415075
:100BF0005040B9F74BBFBF91AF910895BA93AA93F4
:100C00009A938A930895BB81AA8199818881F0E0A3
:100C10000FB6F894CE0FDF1F0FBE089501E00895C0
:100C200020E002D0E9F708952D9301501040202FC5
:100C3000212B08953BBF27913BB7F6DFD9F70895E5
:100C40000AE91CE02801F20130E03BBF0791169150
:100C5000F2013296A791B691F201349647915791DD
:100C60006691242F252B262B21F0FA01362FE2DF67
:100C700001C0D6DF07E0400E00E0501EA201483A56
:100C80005C4008F308950C94460600008895FECF5A
:100C90000000300360069009FF0F13019A01000065
:100CA0000012008801A80C00008004800C800880DD
:0A0CB000009008A000F004F017FC0B
:00000001FF
